{
  "contractName": "PrescriptionNFT",
  "abi": [
    {
      "constant": true,
      "inputs": [
        {
          "name": "",
          "type": "uint256"
        }
      ],
      "name": "prescriptions",
      "outputs": [
        {
          "components": [
            {
              "name": "doctor",
              "type": "address"
            },
            {
              "name": "prescribedPatient",
              "type": "address"
            },
            {
              "name": "pzn",
              "type": "string"
            },
            {
              "name": "medicationName",
              "type": "string"
            },
            {
              "name": "dosage",
              "type": "uint8"
            },
            {
              "name": "dosageUnit",
              "type": "string"
            },
            {
              "name": "numPills",
              "type": "uint8"
            },
            {
              "name": "dateFilled",
              "type": "uint256"
            },
            {
              "name": "expirationTime",
              "type": "uint256"
            }
          ],
          "name": "metadata",
          "type": "tuple"
        },
        {
          "name": "owner",
          "type": "address"
        },
        {
          "name": "filled",
          "type": "bool"
        }
      ],
      "payable": false,
      "stateMutability": "view",
      "type": "function"
    },
    {
      "constant": true,
      "inputs": [],
      "name": "owner",
      "outputs": [
        {
          "name": "",
          "type": "address"
        }
      ],
      "payable": false,
      "stateMutability": "view",
      "type": "function"
    },
    {
      "constant": true,
      "inputs": [
        {
          "name": "",
          "type": "address"
        }
      ],
      "name": "approvedDoctors",
      "outputs": [
        {
          "name": "name",
          "type": "string"
        },
        {
          "name": "isValid",
          "type": "bool"
        }
      ],
      "payable": false,
      "stateMutability": "view",
      "type": "function"
    },
    {
      "inputs": [],
      "payable": false,
      "stateMutability": "nonpayable",
      "type": "constructor"
    },
    {
      "anonymous": false,
      "inputs": [
        {
          "indexed": false,
          "name": "tokenId",
          "type": "uint256"
        },
        {
          "indexed": false,
          "name": "doctor",
          "type": "address"
        },
        {
          "indexed": false,
          "name": "patient",
          "type": "address"
        }
      ],
      "name": "PrescriptionMinted",
      "type": "event"
    },
    {
      "anonymous": false,
      "inputs": [
        {
          "indexed": false,
          "name": "tokenId",
          "type": "uint256"
        },
        {
          "indexed": false,
          "name": "doctor",
          "type": "address"
        }
      ],
      "name": "PrescriptionCancelled",
      "type": "event"
    },
    {
      "anonymous": false,
      "inputs": [
        {
          "indexed": false,
          "name": "tokenId",
          "type": "uint256"
        },
        {
          "indexed": false,
          "name": "pharmacy",
          "type": "address"
        }
      ],
      "name": "PrescriptionFilled",
      "type": "event"
    },
    {
      "anonymous": false,
      "inputs": [
        {
          "indexed": true,
          "name": "_from",
          "type": "address"
        },
        {
          "indexed": true,
          "name": "_to",
          "type": "address"
        },
        {
          "indexed": false,
          "name": "_tokenId",
          "type": "uint256"
        }
      ],
      "name": "Transfer",
      "type": "event"
    },
    {
      "anonymous": false,
      "inputs": [
        {
          "indexed": true,
          "name": "_owner",
          "type": "address"
        },
        {
          "indexed": true,
          "name": "_approved",
          "type": "address"
        },
        {
          "indexed": false,
          "name": "_tokenId",
          "type": "uint256"
        }
      ],
      "name": "Approval",
      "type": "event"
    },
    {
      "constant": false,
      "inputs": [
        {
          "name": "_doctorToApprove",
          "type": "address"
        },
        {
          "name": "_name",
          "type": "string"
        }
      ],
      "name": "approveDoctor",
      "outputs": [],
      "payable": false,
      "stateMutability": "nonpayable",
      "type": "function"
    },
    {
      "constant": false,
      "inputs": [
        {
          "name": "_doctorToRemove",
          "type": "address"
        }
      ],
      "name": "removeDoctor",
      "outputs": [],
      "payable": false,
      "stateMutability": "nonpayable",
      "type": "function"
    },
    {
      "constant": false,
      "inputs": [
        {
          "name": "_patientAddress",
          "type": "address"
        },
        {
          "name": "_pzn",
          "type": "string"
        },
        {
          "name": "_medicationName",
          "type": "string"
        },
        {
          "name": "_dosage",
          "type": "uint8"
        },
        {
          "name": "_dosageUnit",
          "type": "string"
        },
        {
          "name": "_numPills",
          "type": "uint8"
        },
        {
          "name": "_expirationTime",
          "type": "uint256"
        }
      ],
      "name": "prescribe",
      "outputs": [],
      "payable": false,
      "stateMutability": "nonpayable",
      "type": "function"
    },
    {
      "constant": false,
      "inputs": [
        {
          "name": "_tokenId",
          "type": "uint256"
        }
      ],
      "name": "cancelPrescription",
      "outputs": [],
      "payable": false,
      "stateMutability": "nonpayable",
      "type": "function"
    },
    {
      "constant": false,
      "inputs": [
        {
          "name": "_pharmacyAddress",
          "type": "address"
        },
        {
          "name": "_tokenId",
          "type": "uint256"
        }
      ],
      "name": "fillPrescription",
      "outputs": [],
      "payable": false,
      "stateMutability": "nonpayable",
      "type": "function"
    },
    {
      "constant": true,
      "inputs": [],
      "name": "totalSupply",
      "outputs": [
        {
          "name": "",
          "type": "uint256"
        }
      ],
      "payable": false,
      "stateMutability": "view",
      "type": "function"
    },
    {
      "constant": true,
      "inputs": [
        {
          "name": "_owner",
          "type": "address"
        }
      ],
      "name": "balanceOf",
      "outputs": [
        {
          "name": "",
          "type": "uint256"
        }
      ],
      "payable": false,
      "stateMutability": "view",
      "type": "function"
    },
    {
      "constant": true,
      "inputs": [
        {
          "name": "_doctor",
          "type": "address"
        }
      ],
      "name": "tokensIssued",
      "outputs": [
        {
          "name": "",
          "type": "uint256[]"
        }
      ],
      "payable": false,
      "stateMutability": "view",
      "type": "function"
    },
    {
      "constant": true,
      "inputs": [
        {
          "name": "_owner",
          "type": "address"
        }
      ],
      "name": "tokensOf",
      "outputs": [
        {
          "name": "",
          "type": "uint256[]"
        }
      ],
      "payable": false,
      "stateMutability": "view",
      "type": "function"
    },
    {
      "constant": true,
      "inputs": [
        {
          "name": "_tokenId",
          "type": "uint256"
        }
      ],
      "name": "ownerOf",
      "outputs": [
        {
          "name": "",
          "type": "address"
        }
      ],
      "payable": false,
      "stateMutability": "view",
      "type": "function"
    },
    {
      "constant": false,
      "inputs": [
        {
          "name": "_to",
          "type": "address"
        },
        {
          "name": "_tokenId",
          "type": "uint256"
        }
      ],
      "name": "transfer",
      "outputs": [],
      "payable": false,
      "stateMutability": "nonpayable",
      "type": "function"
    },
    {
      "constant": false,
      "inputs": [
        {
          "name": "_to",
          "type": "address"
        },
        {
          "name": "_tokenId",
          "type": "uint256"
        }
      ],
      "name": "approve",
      "outputs": [],
      "payable": false,
      "stateMutability": "nonpayable",
      "type": "function"
    },
    {
      "constant": false,
      "inputs": [
        {
          "name": "_tokenId",
          "type": "uint256"
        }
      ],
      "name": "takeOwnership",
      "outputs": [],
      "payable": false,
      "stateMutability": "nonpayable",
      "type": "function"
    }
  ],
  "bytecode": "0x608060405234801561001057600080fd5b50600080546001600160a01b03191633179055611e91806100326000396000f3fe608060405234801561001057600080fd5b50600436106101005760003560e01c8063874de469116100975780639f07e6ed116100665780639f07e6ed14610214578063a422b76114610235578063a9059cbb14610248578063b2e6ceeb1461025b57610100565b8063874de469146101d35780638bd79522146101e65780638da5cb5b146101f957806398fc90e91461020157610100565b80635a3f2672116100d35780635a3f26721461016d5780636352211e1461018d578063651ebdce146101ad57806370a08231146101c057610100565b8063095ea7b31461010557806318160ddd1461011a57806331dfc91b146101385780634de7b4141461015a575b600080fd5b61011861011336600461150a565b61026e565b005b610122610272565b60405161012f9190611ce5565b60405180910390f35b61014b61014636600461153a565b610279565b60405161012f93929190611cb8565b61011861016836600461153a565b6104bd565b61018061017b3660046113ae565b6105e7565b60405161012f9190611b57565b6101a061019b36600461153a565b610653565b60405161012f9190611b49565b6101186101bb366004611426565b610691565b6101226101ce3660046113ae565b610941565b6101186101e136600461150a565b61095c565b6101186101f43660046113d4565b6109f7565b6101a0610a84565b61011861020f3660046113ae565b610a93565b6102276102223660046113ae565b610ae1565b60405161012f929190611b68565b6101806102433660046113ae565b610b8b565b61011861025636600461150a565b610bf5565b61011861026936600461153a565b610c72565b5050565b6001545b90565b60026020818152600092835260409283902083516101208101855281546001600160a01b03908116825260018084015490911682850152828501805487516101009382161593909302600019011695909504601f8101859004850282018501875280825292959194869492860193919290919083018282801561033d5780601f106103125761010080835404028352916020019161033d565b820191906000526020600020905b81548152906001019060200180831161032057829003601f168201915b505050918352505060038201805460408051602060026001851615610100026000190190941693909304601f81018490048402820184019092528181529382019392918301828280156103d15780601f106103a6576101008083540402835291602001916103d1565b820191906000526020600020905b8154815290600101906020018083116103b457829003601f168201915b5050509183525050600482015460ff1660208083019190915260058301805460408051601f600260001960018616156101000201909416939093049283018590048502810185018252828152940193928301828280156104725780601f1061044757610100808354040283529160200191610472565b820191906000526020600020905b81548152906001019060200180831161045557829003601f168201915b5050509183525050600682015460ff90811660208301526007830154604083015260089092015460609091015260099092015490916001600160a01b03821691600160a01b90041683565b3360008181526003602052604090206001015460ff166104f85760405162461bcd60e51b81526004016104ef90611b98565b60405180910390fd5b60015482106105195760405162461bcd60e51b81526004016104ef90611c58565b600082815260026020526040902080546001600160a01b031633146105505760405162461bcd60e51b81526004016104ef90611c78565b6009810154600160a01b900460ff161561057c5760405162461bcd60e51b81526004016104ef90611c38565b6001810154610594906001600160a01b031684610c75565b80546105a9906001600160a01b031684610de6565b7f17abc66cc2306acecee0dfe95895d2f7dca801ee3d89c6cbf0caf27ba34788a583336040516105da929190611d0e565b60405180910390a1505050565b6001600160a01b03811660009081526005602090815260409182902080548351818402810184019094528084526060939283018282801561064757602002820191906000526020600020905b815481526020019060010190808311610633575b50505050509050919050565b6000818152600260205260408120600901546001600160a01b03168061068b5760405162461bcd60e51b81526004016104ef90611c58565b92915050565b3360008181526003602052604090206001015460ff166106c35760405162461bcd60e51b81526004016104ef90611b98565b60008560ff16116106e65760405162461bcd60e51b81526004016104ef90611be8565b60008360ff16116107095760405162461bcd60e51b81526004016104ef90611b88565b4282116107285760405162461bcd60e51b81526004016104ef90611bf8565b60018054604080516101808101825233606082019081526001600160a01b038d81166080840181905260a084018e905260c084018d905260ff808d1660e086015261010085018c90528a1661012085015242610140850152610160840189905291835260208084019290925260008385018190528581526002808452908590208451805182549085166001600160a01b03199182161783558186015199830180549a90951699169890981790925593860151805195969395919485936107f393918501920190611238565b506060820151805161080f916003840191602090910190611238565b50608082015160048201805460ff191660ff90921691909117905560a08201518051610845916005840191602090910190611238565b5060c082015160068201805460ff90921660ff1990921691909117905560e082015160078083019190915561010090920151600890910155602083810151600990930180546040958601511515600160a01b0260ff60a01b196001600160a01b039096166001600160a01b03199092169190911794909416939093179092553360009081526004808452848220805487845293855294822083905583526001820184559283529120018190556108fb8982610fa3565b7ffc322ad648ad80a86b4a34d63270a99682a42906813e5c571ccecd4b81d1474881338b60405161092e93929190611d29565b60405180910390a1505050505050505050565b6001600160a01b031660009081526005602052604090205490565b60008181526002602052604090206008015442111561098d5760405162461bcd60e51b81526004016104ef90611ca8565b6109978282610bf5565b60008181526002602052604090819020600901805460ff60a01b1916600160a01b179055517fb51362287f01bbd025614c5495cc623fbf8437b952e396f3d68cc2e23c67852f906109eb9083908590611cf3565b60405180910390a15050565b6000546001600160a01b03163314610a215760405162461bcd60e51b81526004016104ef90611bb8565b60408051808201825282815260016020808301919091526001600160a01b038516600090815260038252929092208151805192939192610a649284920190611238565b50602091909101516001909101805460ff19169115159190911790555050565b6000546001600160a01b031681565b6000546001600160a01b03163314610abd5760405162461bcd60e51b81526004016104ef90611bb8565b6001600160a01b03166000908152600360205260409020600101805460ff19169055565b60036020908152600091825260409182902080548351601f60026000196101006001861615020190931692909204918201849004840281018401909452808452909291839190830182828015610b785780601f10610b4d57610100808354040283529160200191610b78565b820191906000526020600020905b815481529060010190602001808311610b5b57829003601f168201915b5050506001909301549192505060ff1682565b6001600160a01b03811660009081526004602090815260409182902080548351818402810184019094528084526060939283018282801561064757602002820191906000526020600020908154815260200190600101908083116106335750505050509050919050565b8033610c0082610653565b6001600160a01b031614610c265760405162461bcd60e51b81526004016104ef90611c98565b60008281526002602052604090206001015482906001600160a01b03163314610c615760405162461bcd60e51b81526004016104ef90611c18565b610c6c338585611023565b50505050565b50565b816001600160a01b0316610c8882610653565b6001600160a01b031614610cae5760405162461bcd60e51b81526004016104ef90611c28565b60008181526006602052604081205490610cd86001610ccc86610941565b9063ffffffff61112016565b6001600160a01b03851660009081526005602052604081208054929350909183908110610d0157fe5b906000526020600020015490508060056000876001600160a01b03166001600160a01b031681526020019081526020016000208481548110610d3f57fe5b60009182526020808320909101929092556001600160a01b0387168152600590915260408120805484908110610d7157fe5b60009182526020808320909101929092556001600160a01b0387168152600590915260409020805490610da89060001983016112b6565b50600084815260066020908152604080832083905592825282822094909455938452600290925250902060090180546001600160a01b031916905550565b6000818152600760209081526040808320546001600160a01b03861684526004909252822054909190610e2090600163ffffffff61112016565b6001600160a01b03851660009081526004602052604081208054929350909183908110610e4957fe5b906000526020600020015490508060046000876001600160a01b03166001600160a01b031681526020019081526020016000208481548110610e8757fe5b60009182526020808320909101929092556001600160a01b0387168152600490915260408120805484908110610eb957fe5b60009182526020808320909101929092556001600160a01b0387168152600490915260409020805490610ef09060001983016112b6565b506000848152600760209081526040808320839055838352808320869055868352600291829052822080546001600160a01b031990811682556001820180549091169055919082908290610f46908301826112df565b610f546003830160006112df565b60048201805460ff19169055610f6e6005830160006112df565b5060068101805460ff191690556000600782018190556008909101555060090180546001600160a81b03191690555050505050565b6001600160a01b038216610fc95760405162461bcd60e51b81526004016104ef90611bc8565b610fd38282611148565b816001600160a01b031660006001600160a01b03167fddf252ad1be2c89b69c2b068fc378daa952ba7f163c4a11628f55a4df523b3ef836040516110179190611ce5565b60405180910390a35050565b6001600160a01b0382166110495760405162461bcd60e51b81526004016104ef90611c68565b61105281610653565b6001600160a01b0316826001600160a01b031614156110835760405162461bcd60e51b81526004016104ef90611c88565b826001600160a01b031661109682610653565b6001600160a01b0316146110bc5760405162461bcd60e51b81526004016104ef90611c48565b6110c68382610c75565b6110d08282611148565b816001600160a01b0316836001600160a01b03167fddf252ad1be2c89b69c2b068fc378daa952ba7f163c4a11628f55a4df523b3ef836040516111139190611ce5565b60405180910390a3505050565b6000828211156111425760405162461bcd60e51b81526004016104ef90611c08565b50900390565b6000818152600260205260409020600901546001600160a01b0316156111805760405162461bcd60e51b81526004016104ef90611ba8565b600081815260026020526040812060090180546001600160a01b0319166001600160a01b0385161790556111b383610941565b6001600160a01b03841660009081526005602090815260408083208054600181810183559185528385200187905586845260069092529091208290558054919250611204919063ffffffff61120c16565b600155505050565b6000828201838110156112315760405162461bcd60e51b81526004016104ef90611bd8565b9392505050565b828054600181600116156101000203166002900490600052602060002090601f016020900481019282601f1061127957805160ff19168380011785556112a6565b828001600101855582156112a6579182015b828111156112a657825182559160200191906001019061128b565b506112b292915061131f565b5090565b8154818355818111156112da576000838152602090206112da91810190830161131f565b505050565b50805460018160011615610100020316600290046000825580601f106113055750610c72565b601f016020900490600052602060002090810190610c7291905b61027691905b808211156112b25760008155600101611325565b803561068b81611e28565b600082601f83011261135557600080fd5b813561136861136382611d78565b611d51565b9150808252602083016020830185838301111561138457600080fd5b61138f838284611de6565b50505092915050565b803561068b81611e3c565b803561068b81611e45565b6000602082840312156113c057600080fd5b60006113cc8484611339565b949350505050565b600080604083850312156113e757600080fd5b60006113f38585611339565b925050602083013567ffffffffffffffff81111561141057600080fd5b61141c85828601611344565b9150509250929050565b600080600080600080600060e0888a03121561144157600080fd5b600061144d8a8a611339565b975050602088013567ffffffffffffffff81111561146a57600080fd5b6114768a828b01611344565b965050604088013567ffffffffffffffff81111561149357600080fd5b61149f8a828b01611344565b95505060606114b08a828b016113a3565b945050608088013567ffffffffffffffff8111156114cd57600080fd5b6114d98a828b01611344565b93505060a06114ea8a828b016113a3565b92505060c06114fb8a828b01611398565b91505092959891949750929550565b6000806040838503121561151d57600080fd5b60006115298585611339565b925050602061141c85828601611398565b60006020828403121561154c57600080fd5b60006113cc8484611398565b60006115648383611b37565b505060200190565b61157581611dd5565b82525050565b61157581611db3565b600061158f82611da6565b6115998185611daa565b93506115a483611da0565b8060005b838110156115d25781516115bc8882611558565b97506115c783611da0565b9250506001016115a8565b509495945050505050565b61157581611dbe565b60006115f182611da6565b6115fb8185611daa565b935061160b818560208601611df2565b61161481611e1e565b9093019392505050565b600061162b602683611daa565b7f4e756d626572206f662070696c6c73206d75737420626520677265617465722081526507468616e20360d41b602082015260400192915050565b6000611673601683611daa565b75111bd8dd1bdc881a5cc81b9bdd08185c1c1c9bdd995960521b815260200192915050565b60006116a5601383611daa565b72151bdad95b88185b1c9958591e481bdddb9959606a1b815260200192915050565b60006116d4602183611daa565b7f4f6e6c79206f776e65722063616e2063616c6c20746869732066756e6374696f8152603760f91b602082015260400192915050565b6000611717601b83611daa565b7f43616e6e6f74206d696e7420746f207a65726f20616464726573730000000000815260200192915050565b6000611750601b83611daa565b7f536166654d6174683a206164646974696f6e206f766572666c6f770000000000815260200192915050565b6000611789601d83611daa565b7f446f73616765206d7573742062652067726561746572207468616e2030000000815260200192915050565b60006117c2602583611daa565b7f45787069726174696f6e2074696d65206d75737420626520696e207468652066815264757475726560d81b602082015260400192915050565b6000611809601e83611daa565b7f536166654d6174683a207375627472616374696f6e206f766572666c6f770000815260200192915050565b6000611842601783611daa565b7f4e6f742074686520707265736372696265642075736572000000000000000000815260200192915050565b600061187b600d83611daa565b6c2737ba103a34329037bbb732b960991b815260200192915050565b60006118a4602183611daa565b7f43616e6e6f742063616e63656c2066696c6c656420707265736372697074696f8152603760f91b602082015260400192915050565b60006118e7601783611daa565b7f53656e646572206973206e6f7420746865206f776e6572000000000000000000815260200192915050565b6000611920601083611daa565b6f125b9d985b1a59081d1bdad95b88125160821b815260200192915050565b600061194c601f83611daa565b7f43616e6e6f74207472616e7366657220746f207a65726f206164647265737300815260200192915050565b6000611985602683611daa565b7f4f6e6c7920746865207072657363726962696e6720646f63746f722063616e2081526518d85b98d95b60d21b602082015260400192915050565b60006119cd602083611daa565b7f43616e6e6f74207472616e7366657220746f2063757272656e74206f776e6572815260200192915050565b6000611a06601a83611daa565b7f4e6f7420746865206f776e6572206f662074686520746f6b656e000000000000815260200192915050565b6000611a3f601883611daa565b7f507265736372697074696f6e2068617320657870697265640000000000000000815260200192915050565b8051600090610120840190611a80858261157b565b506020830151611a93602086018261157b565b5060408301518482036040860152611aab82826115e6565b91505060608301518482036060860152611ac582826115e6565b9150506080830151611ada6080860182611b40565b5060a083015184820360a0860152611af282826115e6565b91505060c0830151611b0760c0860182611b40565b5060e0830151611b1a60e0860182611b37565b50610100830151611b2f610100860182611b37565b509392505050565b61157581610276565b61157581611dcf565b6020810161068b828461157b565b602080825281016112318184611584565b60408082528101611b7981856115e6565b905061123160208301846115dd565b6020808252810161068b8161161e565b6020808252810161068b81611666565b6020808252810161068b81611698565b6020808252810161068b816116c7565b6020808252810161068b8161170a565b6020808252810161068b81611743565b6020808252810161068b8161177c565b6020808252810161068b816117b5565b6020808252810161068b816117fc565b6020808252810161068b81611835565b6020808252810161068b8161186e565b6020808252810161068b81611897565b6020808252810161068b816118da565b6020808252810161068b81611913565b6020808252810161068b8161193f565b6020808252810161068b81611978565b6020808252810161068b816119c0565b6020808252810161068b816119f9565b6020808252810161068b81611a32565b60608082528101611cc98186611a6b565b9050611cd8602083018561157b565b6113cc60408301846115dd565b6020810161068b8284611b37565b60408101611d018285611b37565b611231602083018461157b565b60408101611d1c8285611b37565b611231602083018461156c565b60608101611d378286611b37565b611d44602083018561156c565b6113cc604083018461157b565b60405181810167ffffffffffffffff81118282101715611d7057600080fd5b604052919050565b600067ffffffffffffffff821115611d8f57600080fd5b506020601f91909101601f19160190565b60200190565b5190565b90815260200190565b600061068b82611dc3565b151590565b6001600160a01b031690565b60ff1690565b600061068b82600061068b82611db3565b82818337506000910152565b60005b83811015611e0d578181015183820152602001611df5565b83811115610c6c5750506000910152565b601f01601f191690565b611e3181611db3565b8114610c7257600080fd5b611e3181610276565b611e3181611dcf56fea365627a7a7230582020ed7ed323a64a1376c903ea64395f966ff0fea2563af7dfaea9214fb63dd31d6c6578706572696d656e74616cf564736f6c63430005090040",
  "source": "pragma solidity ^0.5.9;\r\npragma experimental ABIEncoderV2;\r\n\r\nimport \"./ERC721.sol\";\r\nimport \"./SafeMath.sol\";\r\n\r\ncontract PrescriptionNFT is ERC721 {\r\n    using SafeMath for uint256;\r\n\r\n    address public owner;\r\n\r\n    struct PrescriptionMetadata {\r\n        address doctor;\r\n        address prescribedPatient;\r\n        string pzn;\r\n        string medicationName;\r\n        uint8 dosage;\r\n        string dosageUnit;\r\n        uint8 numPills;\r\n        uint256 dateFilled;\r\n        uint256 expirationTime;\r\n    }\r\n\r\n    struct Prescription {\r\n        PrescriptionMetadata metadata;\r\n        address owner;\r\n        bool filled;\r\n    }\r\n\r\n    struct Doctor {\r\n        string name;\r\n        bool isValid;\r\n    }\r\n\r\n    uint256 private totalTokens;\r\n\r\n    mapping (uint256 => Prescription) public prescriptions;\r\n    mapping (address => Doctor) public approvedDoctors;\r\n    mapping (address => uint256[]) private issuedTokens;\r\n    mapping (address => uint256[]) private ownedTokens;\r\n    mapping(uint256 => uint256) private ownedTokensIndex;\r\n    mapping(uint256 => uint256) private issuedTokensIndex;\r\n\r\n    event PrescriptionMinted(uint256 tokenId, address doctor, address patient);\r\n    event PrescriptionCancelled(uint256 tokenId, address doctor);\r\n    event PrescriptionFilled(uint256 tokenId, address pharmacy);\r\n\r\n    constructor() public {\r\n        owner = msg.sender;\r\n    }\r\n\r\n    function approveDoctor(address _doctorToApprove, string memory _name) public onlyOwner {\r\n        approvedDoctors[_doctorToApprove] = Doctor(_name, true);\r\n    }\r\n\r\n    function removeDoctor(address _doctorToRemove) public onlyOwner {\r\n        approvedDoctors[_doctorToRemove].isValid = false;\r\n    }\r\n\r\n    function prescribe(\r\n        address _patientAddress,\r\n        string memory _pzn,\r\n        string memory _medicationName,\r\n        uint8 _dosage,\r\n        string memory _dosageUnit,\r\n        uint8 _numPills,\r\n        uint256 _expirationTime\r\n    ) public doctorIsApproved(msg.sender) {\r\n        require(_dosage > 0, \"Dosage must be greater than 0\");\r\n        require(_numPills > 0, \"Number of pills must be greater than 0\");\r\n        require(_expirationTime > now, \"Expiration time must be in the future\");\r\n\r\n        uint256 newTokenId = totalTokens;\r\n\r\n        prescriptions[newTokenId] = Prescription({\r\n            metadata: PrescriptionMetadata({\r\n                doctor: msg.sender,\r\n                prescribedPatient: _patientAddress,\r\n                pzn: _pzn,\r\n                medicationName: _medicationName,\r\n                dosage: _dosage,\r\n                dosageUnit: _dosageUnit,\r\n                numPills: _numPills,\r\n                dateFilled: now,\r\n                expirationTime: _expirationTime\r\n            }),\r\n            owner: _patientAddress,\r\n            filled: false\r\n        });\r\n\r\n        issuedTokensIndex[newTokenId] = issuedTokens[msg.sender].length;\r\n        issuedTokens[msg.sender].push(newTokenId);\r\n\r\n        _mint(_patientAddress, newTokenId);\r\n\r\n        emit PrescriptionMinted(newTokenId, msg.sender, _patientAddress);\r\n    }\r\n\r\n    function cancelPrescription(uint256 _tokenId) public doctorIsApproved(msg.sender) {\r\n        require(_tokenId < totalTokens, \"Invalid token ID\");\r\n        Prescription storage p = prescriptions[_tokenId];\r\n        require(p.metadata.doctor == msg.sender, \"Only the prescribing doctor can cancel\");\r\n        require(!p.filled, \"Cannot cancel filled prescription\");\r\n\r\n        removeToken(p.metadata.prescribedPatient, _tokenId);\r\n        destroyToken(p.metadata.doctor, _tokenId);\r\n\r\n        emit PrescriptionCancelled(_tokenId, msg.sender);\r\n    }\r\n\r\n    function fillPrescription(address _pharmacyAddress, uint256 _tokenId) public {\r\n        require(now <= prescriptions[_tokenId].metadata.expirationTime, \"Prescription has expired\");\r\n        transfer(_pharmacyAddress, _tokenId);\r\n        prescriptions[_tokenId].filled = true;\r\n        emit PrescriptionFilled(_tokenId, _pharmacyAddress);\r\n    }\r\n\r\n    function totalSupply() public view returns (uint256) {\r\n        return totalTokens;\r\n    }\r\n\r\n    function balanceOf(address _owner) public view returns (uint256) {\r\n        return ownedTokens[_owner].length;\r\n    }\r\n\r\n    function tokensIssued(address _doctor) public view returns (uint256[] memory) {\r\n        return issuedTokens[_doctor];\r\n    }\r\n\r\n    function tokensOf(address _owner) public view returns (uint256[] memory) {\r\n        return ownedTokens[_owner];\r\n    }\r\n\r\n    function ownerOf(uint256 _tokenId) public view returns (address) {\r\n        address tokenOwner = prescriptions[_tokenId].owner;\r\n        require(tokenOwner != address(0), \"Invalid token ID\");\r\n        return tokenOwner;\r\n    }\r\n\r\n    function transfer(address _to, uint256 _tokenId) public onlyOwnerOf(_tokenId) onlyPrescribedUser(_tokenId) {\r\n        removeTokenAndTransfer(msg.sender, _to, _tokenId);\r\n    }\r\n\r\n    function _mint(address _to, uint256 _tokenId) internal {\r\n        require(_to != address(0), \"Cannot mint to zero address\");\r\n        addToken(_to, _tokenId);\r\n        emit Transfer(address(0), _to, _tokenId);\r\n    }\r\n\r\n    function removeTokenAndTransfer(address _from, address _to, uint256 _tokenId) internal {\r\n        require(_to != address(0), \"Cannot transfer to zero address\");\r\n        require(_to != ownerOf(_tokenId), \"Cannot transfer to current owner\");\r\n        require(ownerOf(_tokenId) == _from, \"Sender is not the owner\");\r\n\r\n        removeToken(_from, _tokenId);\r\n        addToken(_to, _tokenId);\r\n        emit Transfer(_from, _to, _tokenId);\r\n    }\r\n\r\n    function addToken(address _to, uint256 _tokenId) private {\r\n        require(prescriptions[_tokenId].owner == address(0), \"Token already owned\");\r\n        prescriptions[_tokenId].owner = _to;\r\n        uint256 length = balanceOf(_to);\r\n\r\n        ownedTokens[_to].push(_tokenId);\r\n        ownedTokensIndex[_tokenId] = length;\r\n        totalTokens = totalTokens.add(1);\r\n    }\r\n\r\n    function removeToken(address _from, uint256 _tokenId) private {\r\n        require(ownerOf(_tokenId) == _from, \"Not the owner\");\r\n\r\n        uint256 tokenIndex = ownedTokensIndex[_tokenId];\r\n        uint256 lastTokenIndex = balanceOf(_from).sub(1);\r\n        uint256 lastToken = ownedTokens[_from][lastTokenIndex];\r\n\r\n        ownedTokens[_from][tokenIndex] = lastToken;\r\n        ownedTokens[_from][lastTokenIndex] = 0;\r\n        ownedTokens[_from].length--;\r\n        ownedTokensIndex[_tokenId] = 0;\r\n        ownedTokensIndex[lastToken] = tokenIndex;\r\n\r\n        prescriptions[_tokenId].owner = address(0);\r\n    }\r\n\r\n    function destroyToken(address _doctor, uint256 _tokenId) private {\r\n        uint256 tokenIndex = issuedTokensIndex[_tokenId];\r\n        uint256 lastTokenIndex = issuedTokens[_doctor].length.sub(1);\r\n        uint256 lastToken = issuedTokens[_doctor][lastTokenIndex];\r\n\r\n        issuedTokens[_doctor][tokenIndex] = lastToken;\r\n        issuedTokens[_doctor][lastTokenIndex] = 0;\r\n        issuedTokens[_doctor].length--;\r\n        issuedTokensIndex[_tokenId] = 0;\r\n        issuedTokensIndex[lastToken] = tokenIndex;\r\n\r\n        delete prescriptions[_tokenId];\r\n    }\r\n\r\n    modifier onlyOwner {\r\n        require(msg.sender == owner, \"Only owner can call this function\");\r\n        _;\r\n    }\r\n\r\n    modifier doctorIsApproved(address _doctor) {\r\n        require(approvedDoctors[_doctor].isValid, \"Doctor is not approved\");\r\n        _;\r\n    }\r\n\r\n    modifier onlyPrescribedUser(uint256 _tokenId) {\r\n        require(prescriptions[_tokenId].metadata.prescribedPatient == msg.sender, \"Not the prescribed user\");\r\n        _;\r\n    }\r\n\r\n    modifier onlyOwnerOf(uint256 _tokenId) {\r\n        require(ownerOf(_tokenId) == msg.sender, \"Not the owner of the token\");\r\n        _;\r\n    }\r\n\r\n    function approve(address _to, uint256 _tokenId) public {\r\n        // No-op\r\n    }\r\n\r\n    function takeOwnership(uint256 _tokenId) public {\r\n        // No-op\r\n    }\r\n}",
  "sourcePath": "D:\\GitHub\\RxNet\\contracts\\token\\PrescriptionNFT.sol",
  "compiler": {
    "name": "solc",
    "version": "0.5.9+commit.e560f70d.Emscripten.clang"
  },
  "schemaVersion": "3.4.16",
  "updatedAt": "2024-08-17T09:44:38.744Z",
  "devdoc": {
    "methods": {}
  },
  "userdoc": {
    "methods": {}
  }
}